0400SBHN20230510000000000000000000000000000000000000000000000000000000000000000000000000000000000000000000000000000000000000000000000000000000000000000000000000000000000000000000000000000000000000000000000000000000000000000000000000000000000000000000000000000000000000000000000000
514353843           17-1                0202305120000031000120230515000003100012023060400000310001000000000000000000014353843           FAC FEBRERO ULTRAFIBRA                  FAC FEB        B 0002-00072896                                             00000000000000000000000000000
514353843           17-2                0202305120000027000020230515000002700002023060400000270000000000000000000000014353843           FAC ENERO ULTRAFIBRA                    FAC ENE        B 0002-00070503                                             00000000000000000000000000000
510530324           25-1                0202305160000058000020230526000006000002023061500000600000000000000000000000010530324           FAC MAYO ULTRAFIBRA                     FAC MAY        B 0002-00077553                                             00000000000000000000000000000
57876012            26-1                020230516000003200002023052600000340000202306150000034000000000000000000000007876012            FAC MAYO ULTRAFIBRA                     FAC MAY        B 0002-00077554                                             00000000000000000000000000000
541931068           29-1                0202305160000032000020230526000003400002023061500000340000000000000000000000041931068           FAC MAYO ULTRAFIBRA                     FAC MAY        B 0002-00078447                                             00000000000000000000000000000
528526904           31-1                0202305160000058000020230526000006000002023061500000600000000000000000000000028526904           FAC MAYO ULTRAFIBRA                     FAC MAY        B 0002-00077555                                             00000000000000000000000000000
525105633           33-1                0202305160000058000020230526000006000002023061500000600000000000000000000000025105633           FAC MAYO ULTRAFIBRA                     FAC MAY        B 0002-00078425                                             00000000000000000000000000000
527541698           34-1                0202305160000058000020230526000006000002023061500000600000000000000000000000027541698           FAC MAYO ULTRAFIBRA                     FAC MAY        B 0002-00077556                                             00000000000000000000000000000
511100446           35-1                0202305160000058000020230526000006000002023061500000600000000000000000000000011100446           FAC MAYO ULTRAFIBRA                     FAC MAY        B 0002-00077557                                             00000000000000000000000000000
516488341           36-1                0202305160000032000020230526000003400002023061500000340000000000000000000000016488341           FAC MAYO ULTRAFIBRA                     FAC MAY        B 0002-00077558                                             00000000000000000000000000000
529815414           37-1                0202305160000052200020230526000005420002023061500000542000000000000000000000029815414           FAC MAYO ULTRAFIBRA                     FAC MAY        B 0002-00078560                                             00000000000000000000000000000
537708935           40-1                0202305160000058000020230526000006000002023061500000600000000000000000000000037708935           FAC MAYO ULTRAFIBRA                     FAC MAY        B 0002-00077559                                             00000000000000000000000000000
56245715            41-1                020230516000003200002023052600000340000202306150000034000000000000000000000006245715            FAC MAYO ULTRAFIBRA                     FAC MAY        B 0002-00077560                                             00000000000000000000000000000
541405936           42-1                0202305160000058000020230526000006000002023061500000600000000000000000000000041405936           FAC MAYO ULTRAFIBRA                     FAC MAY        B 0002-00078660                                             00000000000000000000000000000
541405936           42-2                0202305120000055000020230515000005500002023060400000550000000000000000000000041405936           FAC ABRIL ULTRAFIBRA                    FAC ABR        B 0002-00076663                                             00000000000000000000000000000
55711178            43-1                020230516000005800002023052600000600000202306150000060000000000000000000000005711178            FAC MAYO ULTRAFIBRA                     FAC MAY        B 0002-00077561                                             00000000000000000000000000000
512591866           44-1                0202305160000058000020230526000006000002023061500000600000000000000000000000012591866           FAC MAYO ULTRAFIBRA                     FAC MAY        B 0002-00077562                                             00000000000000000000000000000
56216824            46-1                020230516000003200002023052600000340000202306150000034000000000000000000000006216824            FAC MAYO ULTRAFIBRA                     FAC MAY        B 0002-00077563                                             00000000000000000000000000000
56216824            46-2                020230512000003100012023051500000310001202306040000031000100000000000000000006216824            FAC ABRIL ULTRAFIBRA                    FAC ABR        B 0002-00075786                                             00000000000000000000000000000
534420550           47-1                0202305120000048000020230515000004800002023060400000480000000000000000000000034420550           FAC ENERO ULTRAFIBRA                    FAC ENE        B 0002-00070516                                             00000000000000000000000000000
534420550           47-2                0202305120000048000020230515000004800002023060400000480000000000000000000000034420550           FAC DICIEMBRE ULTRAFIBRA                FAC DIC        B 0002-00068637                                             00000000000000000000000000000
527538889           48-1                0202305160000032000020230526000003400002023061500000340000000000000000000000027538889           FAC MAYO ULTRAFIBRA                     FAC MAY        B 0002-00077564                                             00000000000000000000000000000
529135613           49-1                0202305160000043000020230526000004500002023061500000450000000000000000000000029135613           FAC MAYO ULTRAFIBRA                     FAC MAY        B 0002-00078271                                             00000000000000000000000000000
533487979           50-1                0202305160000058000020230526000006000002023061500000600000000000000000000000033487979           FAC MAYO ULTRAFIBRA                     FAC MAY        B 0002-00078250                                             00000000000000000000000000000
526045057           51-1                0202305160000052200020230526000005420002023061500000542000000000000000000000026045057           FAC MAYO ULTRAFIBRA                     FAC MAY        B 0002-00077565                                             00000000000000000000000000000
534023625           53-1                0202305160000058000020230526000006000002023061500000600000000000000000000000034023625           FAC MAYO ULTRAFIBRA                     FAC MAY        B 0002-00077566                                             00000000000000000000000000000
56305193            55-1                020230516000003200002023052600000340000202306150000034000000000000000000000006305193            FAC MAYO ULTRAFIBRA                     FAC MAY        B 0002-00077568                                             00000000000000000000000000000
516627242           56-1                0202305160000058000020230526000006000002023061500000600000000000000000000000016627242           FAC MAYO ULTRAFIBRA                     FAC MAY        B 0002-00077569                                             00000000000000000000000000000
516627242           56-2                0202305120000055000020230515000005500002023060400000550000000000000000000000016627242           FAC ABRIL ULTRAFIBRA                    FAC ABR        B 0002-00075791                                             00000000000000000000000000000
55711117            57-1                020230516000005800002023052600000600000202306150000060000000000000000000000005711117            FAC MAYO ULTRAFIBRA                     FAC MAY        B 0002-00077570                                             00000000000000000000000000000
538086352           58-1                0202305160000028800020230526000003080002023061500000308000000000000000000000038086352           FAC MAYO ULTRAFIBRA                     FAC MAY        B 0002-00077571                                             00000000000000000000000000000
538086352           58-2                0202305120000028100120230515000002810012023060400000281001000000000000000000038086352           FAC ABRIL ULTRAFIBRA                    FAC ABR        B 0002-00075793                                             00000000000000000000000000000
520320460           60-1                0202305160000058000020230526000006000002023061500000600000000000000000000000020320460           FAC MAYO ULTRAFIBRA                     FAC MAY        B 0002-00078262                                             00000000000000000000000000000
516627204           64-1                0202305160000032000020230526000003400002023061500000340000000000000000000000016627204           FAC MAYO ULTRAFIBRA                     FAC MAY        B 0002-00077573                                             00000000000000000000000000000
523674530           66-1                0202305160000052200020230526000005420002023061500000542000000000000000000000023674530           FAC MAYO ULTRAFIBRA                     FAC MAY        B 0002-00077574                                             00000000000000000000000000000
516038958           68-1                0202305160000052200020230526000005420002023061500000542000000000000000000000016038958           FAC MAYO ULTRAFIBRA                     FAC MAY        B 0002-00077576                                             00000000000000000000000000000
54840099            72-1                020230516000003200002023052600000340000202306150000034000000000000000000000004840099            FAC MAYO ULTRAFIBRA                     FAC MAY        B 0002-00077578                                             00000000000000000000000000000
54840004            77-1                020230516000003200002023052600000340000202306150000034000000000000000000000004840004            FAC MAYO ULTRAFIBRA                     FAC MAY        B 0002-00077580                                             00000000000000000000000000000
523003164           78-1                0202305160000058000020230526000006000002023061500000600000000000000000000000023003164           FAC MAYO ULTRAFIBRA                     FAC MAY        B 0002-00078487                                             00000000000000000000000000000
520780786           80-1                0202305160000058000020230526000006000002023061500000600000000000000000000000020780786           FAC MAYO ULTRAFIBRA                     FAC MAY        B 0002-00077581                                             00000000000000000000000000000
539248216           81-1                0202305120000031000120230515000003100012023060400000310001000000000000000000039248216           FAC MARZO ULTRAFIBRA                    FAC MAR        B 0002-00074013                                             00000000000000000000000000000
539248216           81-2                0202305120000031000120230515000003100012023060400000310001000000000000000000039248216           FAC FEBRERO ULTRAFIBRA                  FAC FEB        B 0002-00072237                                             00000000000000000000000000000
529634562           82-1                0202305160000061200020230526000006320002023061500000632000000000000000000000029634562           FAC MAYO ULTRAFIBRA                     FAC MAY        B 0002-00077582                                             00000000000000000000000000000
524609131           84-1                0202305160000032000020230526000003400002023061500000340000000000000000000000024609131           FAC MAYO ULTRAFIBRA                     FAC MAY        B 0002-00078300                                             00000000000000000000000000000
539950919           88-1                0202305160000058000020230526000006000002023061500000600000000000000000000000039950919           FAC MAYO ULTRAFIBRA                     FAC MAY        B 0002-00077584                                             00000000000000000000000000000
54165879            90-1                020230516000005800002023052600000600000202306150000060000000000000000000000004165879            FAC MAYO ULTRAFIBRA                     FAC MAY        B 0002-00077585                                             00000000000000000000000000000
537330462           91-1                0202305160000058000020230526000006000002023061500000600000000000000000000000037330462           FAC MAYO ULTRAFIBRA                     FAC MAY        B 0002-00077586                                             00000000000000000000000000000
525210300           93-1                0202305160000027200020230526000002920002023061500000292000000000000000000000025210300           FAC MAYO ULTRAFIBRA                     FAC MAY        B 0002-00077587                                             00000000000000000000000000000
533184400           94-1                0202305160000058000020230526000006000002023061500000600000000000000000000000033184400           FAC MAYO ULTRAFIBRA                     FAC MAY        B 0002-00077588                                             00000000000000000000000000000
533184400           94-2                0202305120000055000020230515000005500002023060400000550000000000000000000000033184400           FAC ABRIL ULTRAFIBRA                    FAC ABR        B 0002-00075810                                             00000000000000000000000000000
533184400           94-3                0202305120000002006120230515000000200612023060400000020061000000000000000000033184400           FAC MARZO ULTRAFIBRA                    FAC MAR        B 0002-00074019                                             00000000000000000000000000000
513009607           96-1                0202305160000052200020230526000005420002023061500000542000000000000000000000013009607           FAC MAYO ULTRAFIBRA                     FAC MAY        B 0002-00078332                                             00000000000000000000000000000
56253869            100-1               020230516000005220002023052600000542000202306150000054200000000000000000000006253869            FAC MAYO ULTRAFIBRA                     FAC MAY        B 0002-00077591                                             00000000000000000000000000000
522273973           101-1               0202305160000028800020230526000003080002023061500000308000000000000000000000022273973           FAC MAYO ULTRAFIBRA                     FAC MAY        B 0002-00077592                                             00000000000000000000000000000
520320429           102-1               0202305160000058000020230526000006000002023061500000600000000000000000000000020320429           FAC MAYO ULTRAFIBRA                     FAC MAY        B 0002-00077593                                             00000000000000000000000000000
514314305           103-1               0202305160000058000020230526000006000002023061500000600000000000000000000000014314305           FAC MAYO ULTRAFIBRA                     FAC MAY        B 0002-00078441                                             00000000000000000000000000000
53689808            104-1               020230516000003200002023052600000340000202306150000034000000000000000000000003689808            FAC MAYO ULTRAFIBRA                     FAC MAY        B 0002-00077594                                             00000000000000000000000000000
53689808            104-2               020230512000003100012023051500000310001202306040000031000100000000000000000003689808            FAC ABRIL ULTRAFIBRA                    FAC ABR        B 0002-00075816                                             00000000000000000000000000000
54840032            107-1               020230516000003200002023052600000340000202306150000034000000000000000000000004840032            FAC MAYO ULTRAFIBRA                     FAC MAY        B 0002-00077595                                             00000000000000000000000000000
525210285           109-1               0202305160000052200020230526000005420002023061500000542000000000000000000000025210285           FAC MAYO ULTRAFIBRA                     FAC MAY        B 0002-00078255                                             00000000000000000000000000000
522366799           112-1               0202305160000058000020230526000006000002023061500000600000000000000000000000022366799           FAC MAYO ULTRAFIBRA                     FAC MAY        B 0002-00077596                                             00000000000000000000000000000
517899607           113-1               0202305160000058000020230526000006000002023061500000600000000000000000000000017899607           FAC MAYO ULTRAFIBRA                     FAC MAY        B 0002-00077597                                             00000000000000000000000000000
512370822           114-1               0202305160000058000020230526000006000002023061500000600000000000000000000000012370822           FAC MAYO ULTRAFIBRA                     FAC MAY        B 0002-00077598                                             00000000000000000000000000000
535289421           115-1               0202305160000032000020230526000003400002023061500000340000000000000000000000035289421           FAC MAYO ULTRAFIBRA                     FAC MAY        B 0002-00077599                                             00000000000000000000000000000
513029455           116-1               0202305160000032000020230526000003400002023061500000340000000000000000000000013029455           FAC MAYO ULTRAFIBRA                     FAC MAY        B 0002-00077600                                             00000000000000000000000000000
526861637           119-1               0202305160000058000020230526000006000002023061500000600000000000000000000000026861637           FAC MAYO ULTRAFIBRA                     FAC MAY        B 0002-00078566                                             00000000000000000000000000000
520173838           120-1               0202305160000028800020230526000003080002023061500000308000000000000000000000020173838           FAC MAYO ULTRAFIBRA                     FAC MAY        B 0002-00077601                                             00000000000000000000000000000
527862932           121-1               0202305160000058000020230526000006000002023061500000600000000000000000000000027862932           FAC MAYO ULTRAFIBRA                     FAC MAY        B 0002-00077602                                             00000000000000000000000000000
523650733           124-1               0202305160000032000020230526000003400002023061500000340000000000000000000000023650733           FAC MAYO ULTRAFIBRA                     FAC MAY        B 0002-00077605                                             00000000000000000000000000000
525210272           126-1               0202305160000077000020230526000007900002023061500000790000000000000000000000025210272           FAC MAYO ULTRAFIBRA                     FAC MAY        B 0002-00078299                                             00000000000000000000000000000
520320481           127-1               0202305160000052200020230526000005420002023061500000542000000000000000000000020320481           FAC MAYO ULTRAFIBRA                     FAC MAY        B 0002-00077607                                             00000000000000000000000000000
524774839           128-1               0202305160000032000020230526000003400002023061500000340000000000000000000000024774839           FAC MAYO ULTRAFIBRA                     FAC MAY        B 0002-00077608                                             00000000000000000000000000000
529934904           129-1               0202305160000032000020230526000003400002023061500000340000000000000000000000029934904           FAC MAYO ULTRAFIBRA                     FAC MAY        B 0002-00077609                                             00000000000000000000000000000
524794817           130-1               0202305120000027000020230515000002700002023060400000270000000000000000000000024794817           FAC DICIEMBRE ULTRAFIBRA                FAC DIC        B 0002-00069526                                             00000000000000000000000000000
510628893           133-1               0202305160000052200020230526000005420002023061500000542000000000000000000000010628893           FAC MAYO ULTRAFIBRA                     FAC MAY        B 0002-00077610                                             00000000000000000000000000000
516627237           136-1               0202305160000032000020230526000003400002023061500000340000000000000000000000016627237           FAC MAYO ULTRAFIBRA                     FAC MAY        B 0002-00078581                                             00000000000000000000000000000
541160705           137-1               0202305120000048000020230515000004800002023060400000480000000000000000000000041160705           FAC NOVIEMBRE ULTRAFIBRA                FAC NOV        B 0002-00066972                                             00000000000000000000000000000
541160705           137-2               0202305120000048000020230515000004800002023060400000480000000000000000000000041160705           FAC PROPORCIONAL OCTUBRE                FAC OCT        B 0002-00066863                                             00000000000000000000000000000
542790166           138-1               0202305160000058000020230526000006000002023061500000600000000000000000000000042790166           FAC MAYO ULTRAFIBRA                     FAC MAY        B 0002-00078295                                             00000000000000000000000000000
513923898           143-1               0202305160000058000020230526000006000002023061500000600000000000000000000000013923898           FAC MAYO ULTRAFIBRA                     FAC MAY        B 0002-00078257                                             00000000000000000000000000000
511125122           144-1               0202305160000058000020230526000006000002023061500000600000000000000000000000011125122           FAC MAYO ULTRAFIBRA                     FAC MAY        B 0002-00077612                                             00000000000000000000000000000
54531371            146-1               020230516000003200002023052600000340000202306150000034000000000000000000000004531371            FAC MAYO ULTRAFIBRA                     FAC MAY        B 0002-00077614                                             00000000000000000000000000000
530102630           147-1               0202305160000058000020230526000006000002023061500000600000000000000000000000030102630           FAC MAYO ULTRAFIBRA                     FAC MAY        B 0002-00078534                                             00000000000000000000000000000
510530341           149-1               0202305160000058000020230526000006000002023061500000600000000000000000000000010530341           FAC MAYO ULTRAFIBRA                     FAC MAY        B 0002-00078238                                             00000000000000000000000000000
516038977           151-1               0202305160000058000020230526000006000002023061500000600000000000000000000000016038977           FAC MAYO ULTRAFIBRA                     FAC MAY        B 0002-00077616                                             00000000000000000000000000000
513029494           152-1               0202305160000032000020230526000003400002023061500000340000000000000000000000013029494           FAC MAYO ULTRAFIBRA                     FAC MAY        B 0002-00077617                                             00000000000000000000000000000
513029494           152-2               0202305120000031000120230515000003100012023060400000310001000000000000000000013029494           FAC ABRIL ULTRAFIBRA                    FAC ABR        B 0002-00075838                                             00000000000000000000000000000
516627292           155-1               0202305160000052200020230526000005420002023061500000542000000000000000000000016627292           FAC MAYO ULTRAFIBRA                     FAC MAY        B 0002-00077619                                             00000000000000000000000000000
528526962           157-1               0202305160000052200020230526000005420002023061500000542000000000000000000000028526962           FAC MAYO ULTRAFIBRA                     FAC MAY        B 0002-00078316                                             00000000000000000000000000000
517174683           158-1               0202305160000027200020230526000002920002023061500000292000000000000000000000017174683           FAC MAYO ULTRAFIBRA                     FAC MAY        B 0002-00077621                                             00000000000000000000000000000
539048988           159-1               0202305160000058000020230526000006000002023061500000600000000000000000000000039048988           FAC MAYO ULTRAFIBRA                     FAC MAY        B 0002-00078479                                             00000000000000000000000000000
528571662           160-1               0202305160000028800020230526000003080002023061500000308000000000000000000000028571662           FAC MAYO ULTRAFIBRA                     FAC MAY        B 0002-00077622                                             00000000000000000000000000000
513029457           161-1               0202305160000058000020230526000006000002023061500000600000000000000000000000013029457           FAC MAYO ULTRAFIBRA                     FAC MAY        B 0002-00077623                                             00000000000000000000000000000
52393125            163-1               020230516000002880002023052600000308000202306150000030800000000000000000000002393125            FAC MAYO ULTRAFIBRA                     FAC MAY        B 0002-00077624                                             00000000000000000000000000000
528861641           168-1               0202305160000058000020230526000006000002023061500000600000000000000000000000028861641           FAC MAYO ULTRAFIBRA                     FAC MAY        B 0002-00078245                                             00000000000000000000000000000
525642044           169-1               0202305160000058000020230526000006000002023061500000600000000000000000000000025642044           FAC MAYO ULTRAFIBRA                     FAC MAY        B 0002-00077626                                             00000000000000000000000000000
517068989           176-1               0202305160000032000020230526000003400002023061500000340000000000000000000000017068989           FAC MAYO ULTRAFIBRA                     FAC MAY        B 0002-00078308                                             00000000000000000000000000000
517068989           176-2               0202305160000058000020230526000006000002023061500000600000000000000000000000017068989           FAC MAYO ULTRAFIBRA                     FAC MAY        B 0002-00078213                                             00000000000000000000000000000
535642858           177-1               0202305160000052200020230526000005420002023061500000542000000000000000000000035642858           FAC MAYO ULTRAFIBRA                     FAC MAY        B 0002-00077628                                             00000000000000000000000000000
524018867           182-1               0202305160000069300020230526000007130002023061500000713000000000000000000000024018867           FAC MAYO ULTRAFIBRA                     FAC MAY        B 0002-00077632                                             00000000000000000000000000000
514492478           183-1               0202305160000052200020230526000005420002023061500000542000000000000000000000014492478           FAC MAYO ULTRAFIBRA                     FAC MAY        B 0002-00078352                                             00000000000000000000000000000
514492478           183-2               0202305120000049700020230515000004970002023060400000497000000000000000000000014492478           FAC ABRIL ULTRAFIBRA                    FAC ABR        B 0002-00076828                                             00000000000000000000000000000
514492478           183-3               0202305120000041400020230515000004140002023060400000414000000000000000000000014492478           FAC PROPORCIONAL MARZO                  FAC MAR        01                                                          00000000000000000000000000000
521689064           184-1               0202305160000058000020230526000006000002023061500000600000000000000000000000021689064           FAC MAYO ULTRAFIBRA                     FAC MAY        B 0002-00077633                                             00000000000000000000000000000
56182977            185-1               020230516000005800002023052600000600000202306150000060000000000000000000000006182977            FAC MAYO ULTRAFIBRA                     FAC MAY        B 0002-00077634                                             00000000000000000000000000000
510061257           188-1               0202305160000028800020230526000003080002023061500000308000000000000000000000010061257           FAC MAYO ULTRAFIBRA                     FAC MAY        B 0002-00077637                                             00000000000000000000000000000
521641723           189-1               0202305160000052200020230526000005420002023061500000542000000000000000000000021641723           FAC MAYO ULTRAFIBRA                     FAC MAY        B 0002-00077638                                             00000000000000000000000000000
522634692           190-1               0202305160000058000020230526000006000002023061500000600000000000000000000000022634692           FAC MAYO ULTRAFIBRA                     FAC MAY        B 0002-00077639                                             00000000000000000000000000000
522634692           190-2               0202305120000072000120230515000007200012023060400000720001000000000000000000022634692           FAC ABRIL ULTRAFIBRA                    FAC ABR        B 0002-00075860                                             00000000000000000000000000000
516251480           194-1               0202305160000032000020230526000003400002023061500000340000000000000000000000016251480           FAC MAYO ULTRAFIBRA                     FAC MAY        B 0002-00077641                                             00000000000000000000000000000
54829045            198-1               020230516000005800002023052600000600000202306150000060000000000000000000000004829045            FAC MAYO ULTRAFIBRA                     FAC MAY        B 0002-00078381                                             00000000000000000000000000000
511965481           200-1               0202305160000058000020230526000006000002023061500000600000000000000000000000011965481           FAC MAYO ULTRAFIBRA                     FAC MAY        B 0002-00077644                                             00000000000000000000000000000
511965474           201-1               0202305160000032000020230526000003400002023061500000340000000000000000000000011965474           FAC MAYO ULTRAFIBRA                     FAC MAY        B 0002-00077645                                             00000000000000000000000000000
533278233           203-1               0202305160000028800020230526000003080002023061500000308000000000000000000000033278233           FAC MAYO ULTRAFIBRA                     FAC MAY        B 0002-00077647                                             00000000000000000000000000000
528148844           204-1               0202305160000028800020230526000003080002023061500000308000000000000000000000028148844           FAC MAYO ULTRAFIBRA                     FAC MAY        B 0002-00077648                                             00000000000000000000000000000
524682964           205-1               0202305160000058000020230526000006000002023061500000600000000000000000000000024682964           FAC MAYO ULTRAFIBRA                     FAC MAY        B 0002-00077649                                             00000000000000000000000000000
54099592            209-1               020230516000003200002023052600000340000202306150000034000000000000000000000004099592            FAC MAYO ULTRAFIBRA                     FAC MAY        B 0002-00077651                                             00000000000000000000000000000
536337154           211-1               0202305160000058000020230526000006000002023061500000600000000000000000000000036337154           FAC MAYO ULTRAFIBRA                     FAC MAY        B 0002-00077653                                             00000000000000000000000000000
510067849           214-1               0202305160000032000020230526000003400002023061500000340000000000000000000000010067849           FAC MAYO ULTRAFIBRA                     FAC MAY        B 0002-00077655                                             00000000000000000000000000000
511620071           215-1               0202305160000032000020230526000003400002023061500000340000000000000000000000011620071           FAC MAYO ULTRAFIBRA                     FAC MAY        B 0002-00077657                                             00000000000000000000000000000
511620071           215-2               0202305120000031000120230515000003100012023060400000310001000000000000000000011620071           FAC ABRIL ULTRAFIBRA                    FAC ABR        B 0002-00075878                                             00000000000000000000000000000
525642004           217-1               0202305160000028800020230526000003080002023061500000308000000000000000000000025642004           FAC MAYO ULTRAFIBRA                     FAC MAY        B 0002-00077658                                             00000000000000000000000000000
54840091            219-1               020230516000005800002023052600000600000202306150000060000000000000000000000004840091            FAC MAYO ULTRAFIBRA                     FAC MAY        B 0002-00077659                                             00000000000000000000000000000
523650742           222-1               0202305160000058000020230526000006000002023061500000600000000000000000000000023650742           FAC MAYO ULTRAFIBRA                     FAC MAY        B 0002-00078496                                             00000000000000000000000000000
56236648            224-1               020230516000003200002023052600000340000202306150000034000000000000000000000006236648            FAC MAYO ULTRAFIBRA                     FAC MAY        B 0002-00077660                                             00000000000000000000000000000
517899616           226-1               0202305160000058000020230526000006000002023061500000600000000000000000000000017899616           FAC MAYO ULTRAFIBRA                     FAC MAY        B 0002-00077661                                             00000000000000000000000000000
57649984            227-1               020230516000005800002023052600000600000202306150000060000000000000000000000007649984            FAC MAYO ULTRAFIBRA                     FAC MAY        B 0002-00077662                                             00000000000000000000000000000
53752885            229-1               020230516000003200002023052600000340000202306150000034000000000000000000000003752885            FAC MAYO ULTRAFIBRA                     FAC MAY        B 0002-00077663                                             00000000000000000000000000000
513027485           232-1               0202305160000058000020230526000006000002023061500000600000000000000000000000013027485           FAC MAYO ULTRAFIBRA                     FAC MAY        B 0002-00077665                                             00000000000000000000000000000
516627212           236-1               0202305160000061200020230526000006320002023061500000632000000000000000000000016627212           FAC MAYO ULTRAFIBRA                     FAC MAY        B 0002-00077666                                             00000000000000000000000000000
517568516           237-1               0202305160000028800020230526000003080002023061500000308000000000000000000000017568516           FAC MAYO ULTRAFIBRA                     FAC MAY        B 0002-00077667                                             00000000000000000000000000000
520320489           239-1               0202305160000032000020230526000003400002023061500000340000000000000000000000020320489           FAC MAYO ULTRAFIBRA                     FAC MAY        B 0002-00078254                                             00000000000000000000000000000
525990023           240-1               0202305160000058000020230526000006000002023061500000600000000000000000000000025990023           FAC MAYO ULTRAFIBRA                     FAC MAY        B 0002-00077668                                             00000000000000000000000000000
532623031           241-1               0202305120000055000020230515000005500002023060400000550000000000000000000000032623031           FAC ABRIL ULTRAFIBRA                    FAC ABR        B 0002-00075890                                             00000000000000000000000000000
528518953           243-1               0202305160000068000120230526000007000012023061500000700001000000000000000000028518953           FAC MAYO ULTRAFIBRA                     FAC MAY        B 0002-00077670                                             00000000000000000000000000000
523290025           246-1               0202305160000032000020230526000003400002023061500000340000000000000000000000023290025           FAC MAYO ULTRAFIBRA                     FAC MAY        B 0002-00077672                                             00000000000000000000000000000
524071459           247-1               0202305160000068000120230526000007000012023061500000700001000000000000000000024071459           FAC MAYO ULTRAFIBRA                     FAC MAY        B 0002-00077673                                             00000000000000000000000000000
511887573           249-1               0202305160000052200020230526000005420002023061500000542000000000000000000000011887573           FAC MAYO ULTRAFIBRA                     FAC MAY        B 0002-00077674                                             00000000000000000000000000000
536738188           252-1               0202305160000058000020230526000006000002023061500000600000000000000000000000036738188           FAC MAYO ULTRAFIBRA                     FAC MAY        B 0002-00077677                                             00000000000000000000000000000
528289062           256-1               0202305160000058000020230526000006000002023061500000600000000000000000000000028289062           FAC MAYO ULTRAFIBRA                     FAC MAY        B 0002-00077681                                             00000000000000000000000000000
528289062           256-2               0202305120000055000020230515000005500002023060400000550000000000000000000000028289062           FAC ABRIL ULTRAFIBRA                    FAC ABR        B 0002-00075902                                             00000000000000000000000000000
511965463           263-1               0202305160000032000020230526000003400002023061500000340000000000000000000000011965463           FAC MAYO ULTRAFIBRA                     FAC MAY        B 0002-00077684                                             00000000000000000000000000000
531986534           265-1               0202305160000052200020230526000005420002023061500000542000000000000000000000031986534           FAC MAYO ULTRAFIBRA                     FAC MAY        B 0002-00077686                                             00000000000000000000000000000
531986534           265-2               0202305120000049700020230515000004970002023060400000497000000000000000000000031986534           FAC ABRIL ULTRAFIBRA                    FAC ABR        B 0002-00075907                                             00000000000000000000000000000
525171200           266-1               0202305160000052200020230526000005420002023061500000542000000000000000000000025171200           FAC MAYO ULTRAFIBRA                     FAC MAY        B 0002-00077687                                             00000000000000000000000000000
524774835           268-1               0202305160000058000020230526000006000002023061500000600000000000000000000000024774835           FAC MAYO ULTRAFIBRA                     FAC MAY        B 0002-00077688                                             00000000000000000000000000000
56253780            269-1               020230516000003200002023052600000340000202306150000034000000000000000000000006253780            FAC MAYO ULTRAFIBRA                     FAC MAY        B 0002-00077689                                             00000000000000000000000000000
514746621           270-1               0202305160000032000020230526000003400002023061500000340000000000000000000000014746621           FAC MAYO ULTRAFIBRA                     FAC MAY        B 0002-00077690                                             00000000000000000000000000000
511100442           271-1               0202305160000028800020230526000003080002023061500000308000000000000000000000011100442           FAC MAYO ULTRAFIBRA                     FAC MAY        B 0002-00077656                                             00000000000000000000000000000
56305020            274-1               020230516000003200002023052600000340000202306150000034000000000000000000000006305020            FAC MAYO ULTRAFIBRA                     FAC MAY        B 0002-00077692                                             00000000000000000000000000000
523290937           275-1               0202305160000032000020230526000003400002023061500000340000000000000000000000023290937           FAC MAYO ULTRAFIBRA                     FAC MAY        B 0002-00078233                                             00000000000000000000000000000
523290937           275-2               0202305160000032000020230526000003400002023061500000340000000000000000000000023290937           FAC MAYO ULTRAFIBRA                     FAC MAY        B 0002-00077693                                             00000000000000000000000000000
53958043            276-1               020230516000002720002023052600000292000202306150000029200000000000000000000003958043            FAC MAYO ULTRAFIBRA                     FAC MAY        B 0002-00077694                                             00000000000000000000000000000
525210259           277-1               0202305160000032000020230526000003400002023061500000340000000000000000000000025210259           FAC MAYO ULTRAFIBRA                     FAC MAY        B 0002-00077695                                             00000000000000000000000000000
531803098           279-1               0202305160000058000020230526000006000002023061500000600000000000000000000000031803098           FAC MAYO ULTRAFIBRA                     FAC MAY        B 0002-00078751                                             00000000000000000000000000000
531803098           279-2               0202305160000058000020230526000006000002023061500000600000000000000000000000031803098           FAC MAYO ULTRAFIBRA                     FAC MAY        B 0002-00078289                                             00000000000000000000000000000
514265537           285-1               0202305160000058000020230526000006000002023061500000600000000000000000000000014265537           FAC MAYO ULTRAFIBRA                     FAC MAY        B 0002-00078373                                             00000000000000000000000000000
537708938           286-1               0202305160000049300020230526000005130002023061500000513000000000000000000000037708938           FAC MAYO ULTRAFIBRA                     FAC MAY        B 0002-00077699                                             00000000000000000000000000000
523902456           290-1               0202305160000056000020230526000005800002023061500000580000000000000000000000023902456           FAC MAYO ULTRAFIBRA                     FAC MAY        B 0005-00015007                                             00000000000000000000000000000
53958646            292-1               020230516000003200002023052600000340000202306150000034000000000000000000000003958646            FAC MAYO ULTRAFIBRA                     FAC MAY        B 0002-00077701                                             00000000000000000000000000000
532139916           295-1               0202305160000058000020230526000006000002023061500000600000000000000000000000032139916           FAC MAYO ULTRAFIBRA                     FAC MAY        B 0002-00078452                                             00000000000000000000000000000
54099600            296-1               020230516000003200002023052600000340000202306150000034000000000000000000000004099600            FAC MAYO ULTRAFIBRA                     FAC MAY        B 0002-00077704                                             00000000000000000000000000000
54850071            301-1               020230516000003200002023052600000340000202306150000034000000000000000000000004850071            FAC MAYO ULTRAFIBRA                     FAC MAY        B 0002-00077705                                             00000000000000000000000000000
56176574            302-1               020230516000005800002023052600000600000202306150000060000000000000000000000006176574            FAC MAYO ULTRAFIBRA                     FAC MAY        B 0002-00078331                                             00000000000000000000000000000
537708946           306-1               0202305160000077000020230526000007900002023061500000790000000000000000000000037708946           FAC MAYO ULTRAFIBRA                     FAC MAY        B 0002-00077706                                             00000000000000000000000000000
530715762699        307-1               0202305160000032000020230526000003400002023061500000340000000000000000000000030715762699        FAC MAYO ULTRAFIBRA                     FAC MAY        A 0002-00001494                                             00000000000000000000000000000
532958669           309-1               0202305160000052200020230526000005420002023061500000542000000000000000000000032958669           FAC MAYO ULTRAFIBRA                     FAC MAY        B 0002-00077708                                             00000000000000000000000000000
53689810            311-1               020230516000003200002023052600000340000202306150000034000000000000000000000003689810            FAC MAYO ULTRAFIBRA                     FAC MAY        B 0002-00077709                                             00000000000000000000000000000
522636267           313-1               0202305120000026400020230515000002640002023060400000264000000000000000000000022636267           FAC JULIO ULTRAFIBRA                    FAC JUL        B 0002-00060289                                             00000000000000000000000000000
522636267           313-2               0202305120000022900120230515000002290012023060400000229001000000000000000000022636267           FAC JUNIO ULTRAFIBRA                    FAC JUN        B 0002-00059001                                             00000000000000000000000000000
510992833           316-1               0202305160000058000020230526000006000002023061500000600000000000000000000000010992833           FAC MAYO ULTRAFIBRA                     FAC MAY        B 0002-00077711                                             00000000000000000000000000000
511573237           319-1               0202305160000058000020230526000006000002023061500000600000000000000000000000011573237           FAC MAYO ULTRAFIBRA                     FAC MAY        B 0002-00078502                                             00000000000000000000000000000
511573205           321-1               0202305160000032000020230526000003400002023061500000340000000000000000000000011573205           FAC MAYO ULTRAFIBRA                     FAC MAY        B 0002-00077714                                             00000000000000000000000000000
528526982           322-1               0202305160000052200020230526000005420002023061500000542000000000000000000000028526982           FAC MAYO ULTRAFIBRA                     FAC MAY        B 0002-00078249                                             00000000000000000000000000000
543009378           324-1               0202305160000058000020230526000006000002023061500000600000000000000000000000043009378           FAC MAYO ULTRAFIBRA                     FAC MAY        B 0002-00078286                                             00000000000000000000000000000
58640925            325-1               020230516000007700002023052600000790000202306150000079000000000000000000000008640925            FAC MAYO ULTRAFIBRA                     FAC MAY        B 0002-00078241                                             00000000000000000000000000000
529934958           328-1               0202305160000032000020230526000003400002023061500000340000000000000000000000029934958           FAC MAYO ULTRAFIBRA                     FAC MAY        B 0002-00077716                                             00000000000000000000000000000
522932657           329-1               0202305160000028800020230526000003080002023061500000308000000000000000000000022932657           FAC MAYO ULTRAFIBRA                     FAC MAY        B 0002-00078579                                             00000000000000000000000000000
522932657           329-2               0202305160000069300020230526000007130002023061500000713000000000000000000000022932657           FAC MAYO ULTRAFIBRA                     FAC MAY        B 0002-00078361                                             00000000000000000000000000000
522932657           329-3               0202305160000028800020230526000003080002023061500000308000000000000000000000022932657           FAC MAYO ULTRAFIBRA                     FAC MAY        B 0002-00078340                                             00000000000000000000000000000
522932657           329-4               0202305160000052200020230526000005420002023061500000542000000000000000000000022932657           FAC MAYO ULTRAFIBRA                     FAC MAY        B 0002-00078266                                             00000000000000000000000000000
522932657           329-5               0202305120000065000020230515000006500002023060400000650000000000000000000000022932657           FAC ABRIL ULTRAFIBRA                    FAC ABR        B 0002-00076837                                             00000000000000000000000000000
522932657           329-6               0202305120000028100120230515000002810012023060400000281001000000000000000000022932657           FAC ABRIL ULTRAFIBRA                    FAC ABR        B 0002-00076816                                             00000000000000000000000000000
522932657           329-7               0202305120000028100120230515000002810012023060400000281001000000000000000000022932657           FAC ABRIL ULTRAFIBRA                    FAC ABR        B 0002-00076583                                             00000000000000000000000000000
522932657           329-8               0202305120000049700020230515000004970002023060400000497000000000000000000000022932657           FAC ABRIL ULTRAFIBRA                    FAC ABR        B 0002-00076487                                             00000000000000000000000000000
57708698            337-1               020230516000005800002023052600000600000202306150000060000000000000000000000007708698            FAC MAYO ULTRAFIBRA                     FAC MAY        B 0002-00077720                                             00000000000000000000000000000
513246632           338-1               0202305160000028800020230526000003080002023061500000308000000000000000000000013246632           FAC MAYO ULTRAFIBRA                     FAC MAY        B 0002-00077721                                             00000000000000000000000000000
527648335           341-1               0202305160000069300020230526000007130002023061500000713000000000000000000000027648335           FAC MAYO ULTRAFIBRA                     FAC MAY        B 0002-00078513                                             00000000000000000000000000000
527648335           341-2               0202305160000052200020230526000005420002023061500000542000000000000000000000027648335           FAC MAYO ULTRAFIBRA                     FAC MAY        B 0002-00077724                                             00000000000000000000000000000
531244887           349-1               0202305160000061200020230526000006320002023061500000632000000000000000000000031244887           FAC MAYO ULTRAFIBRA                     FAC MAY        B 0002-00077726                                             00000000000000000000000000000
513029477           354-1               0202305160000058000020230526000006000002023061500000600000000000000000000000013029477           FAC MAYO ULTRAFIBRA                     FAC MAY        B 0002-00077728                                             00000000000000000000000000000
56232809            355-1               020230516000007700002023052600000790000202306150000079000000000000000000000006232809            FAC MAYO ULTRAFIBRA                     FAC MAY        B 0002-00078645                                             00000000000000000000000000000
53742605            358-1               020230516000003200002023052600000340000202306150000034000000000000000000000003742605            FAC MAYO ULTRAFIBRA                     FAC MAY        B 0002-00077729                                             00000000000000000000000000000
534038277           362-1               0202305160000027200020230526000002920002023061500000292000000000000000000000034038277           FAC MAYO ULTRAFIBRA                     FAC MAY        B 0002-00078680                                             00000000000000000000000000000
534038277           362-2               0202305120000026650020230515000002665002023060400000266500000000000000000000034038277           FAC ABRIL ULTRAFIBRA                    FAC ABR        B 0002-00076683                                             00000000000000000000000000000
524102240           363-1               0202305160000058000020230526000006000002023061500000600000000000000000000000024102240           FAC MAYO ULTRAFIBRA                     FAC MAY        B 0002-00077731                                             00000000000000000000000000000
526508037           364-1               0202305160000052200020230526000005420002023061500000542000000000000000000000026508037           FAC MAYO ULTRAFIBRA                     FAC MAY        B 0002-00078511                                             00000000000000000000000000000
527781764           368-1               0202305160000058000020230526000006000002023061500000600000000000000000000000027781764           FAC MAYO ULTRAFIBRA                     FAC MAY        B 0002-00078524                                             00000000000000000000000000000
527890483           369-1               0202305160000052200020230526000005420002023061500000542000000000000000000000027890483           FAC MAYO ULTRAFIBRA                     FAC MAY        B 0002-00077732                                             00000000000000000000000000000
52449388            370-1               020230516000005800002023052600000600000202306150000060000000000000000000000002449388            FAC MAYO ULTRAFIBRA                     FAC MAY        B 0002-00077733                                             00000000000000000000000000000
530858363           372-1               0202305160000058000020230526000006000002023061500000600000000000000000000000030858363           FAC MAYO ULTRAFIBRA                     FAC MAY        B 0002-00078453                                             00000000000000000000000000000
536241629           373-1               0202305160000032000020230526000003400002023061500000340000000000000000000000036241629           FAC MAYO ULTRAFIBRA                     FAC MAY        B 0001-00114469                                             00000000000000000000000000000
531244883           375-1               0202305160000058000020230526000006000002023061500000600000000000000000000000031244883           FAC MAYO ULTRAFIBRA                     FAC MAY        B 0002-00078388                                             00000000000000000000000000000
56181926            376-1               020230516000005800002023052600000600000202306150000060000000000000000000000006181926            FAC MAYO ULTRAFIBRA                     FAC MAY        B 0002-00077734                                             00000000000000000000000000000
531960101           377-1               0202305160000058000020230526000006000002023061500000600000000000000000000000031960101           FAC MAYO ULTRAFIBRA                     FAC MAY        B 0002-00077735                                             00000000000000000000000000000
56173025            379-1               020230516000003200002023052600000340000202306150000034000000000000000000000006173025            FAC MAYO ULTRAFIBRA                     FAC MAY        B 0002-00077737                                             00000000000000000000000000000
531960188           382-1               0202305160000058000020230526000006000002023061500000600000000000000000000000031960188           FAC MAYO ULTRAFIBRA                     FAC MAY        B 0002-00077739                                             00000000000000000000000000000
534023694           384-1               0202305160000058000020230526000006000002023061500000600000000000000000000000034023694           FAC MAYO ULTRAFIBRA                     FAC MAY        B 0002-00078454                                             00000000000000000000000000000
518458000           385-1               0202305160000032000020230526000003400002023061500000340000000000000000000000018458000           FAC MAYO ULTRAFIBRA                     FAC MAY        B 0002-00077740                                             00000000000000000000000000000
518458000           385-2               0202305120000031000120230515000003100012023060400000310001000000000000000000018458000           FAC ABRIL ULTRAFIBRA                    FAC ABR        B 0002-00075960                                             00000000000000000000000000000
517068973           386-1               0202305160000058000020230526000006000002023061500000600000000000000000000000017068973           FAC MAYO ULTRAFIBRA                     FAC MAY        B 0002-00077741                                             00000000000000000000000000000
542704302           389-1               0202305160000032000020230526000003400002023061500000340000000000000000000000042704302           FAC MAYO ULTRAFIBRA                     FAC MAY        B 0002-00077743                                             00000000000000000000000000000
536241635           393-1               0202305160000052200020230526000005420002023061500000542000000000000000000000036241635           FAC MAYO ULTRAFIBRA                     FAC MAY        B 0002-00077746                                             00000000000000000000000000000
527862976           394-1               0202305160000058000020230526000006000002023061500000600000000000000000000000027862976           FAC MAYO ULTRAFIBRA                     FAC MAY        B 0002-00077747                                             00000000000000000000000000000
529352949           395-1               0202305160000052200020230526000005420002023061500000542000000000000000000000029352949           FAC MAYO ULTRAFIBRA                     FAC MAY        B 0002-00077748                                             00000000000000000000000000000
511947633           396-1               0202305160000032000020230526000003400002023061500000340000000000000000000000011947633           FAC MAYO ULTRAFIBRA                     FAC MAY        B 0002-00077749                                             00000000000000000000000000000
511947633           396-2               0202305120000031000120230515000003100012023060400000310001000000000000000000011947633           FAC ABRIL ULTRAFIBRA                    FAC ABR        B 0002-00075969                                             00000000000000000000000000000
56236630            397-1               020230516000003200002023052600000340000202306150000034000000000000000000000006236630            FAC MAYO ULTRAFIBRA                     FAC MAY        B 0002-00077750                                             00000000000000000000000000000
523290038           398-1               0202305160000058000020230526000006000002023061500000600000000000000000000000023290038           FAC MAYO ULTRAFIBRA                     FAC MAY        B 0002-00077751                                             00000000000000000000000000000
56222390            399-1               020230516000005800002023052600000600000202306150000060000000000000000000000006222390            FAC MAYO ULTRAFIBRA                     FAC MAY        B 0002-00078539                                             00000000000000000000000000000
536477756           408-1               0202305160000077000020230526000007900002023061500000790000000000000000000000036477756           FAC MAYO ULTRAFIBRA                     FAC MAY        B 0002-00077752                                             00000000000000000000000000000
531244877           411-1               0202305160000058000020230526000006000002023061500000600000000000000000000000031244877           FAC MAYO ULTRAFIBRA                     FAC MAY        B 0002-00078559                                             00000000000000000000000000000
514746647           413-1               0202305160000058000020230526000006000002023061500000600000000000000000000000014746647           FAC MAYO ULTRAFIBRA                     FAC MAY        B 0002-00077754                                             00000000000000000000000000000
513246680           415-1               0202305120000031000120230515000003100012023060400000310001000000000000000000013246680           FAC MARZO ULTRAFIBRA                    FAC MAR        B 0002-00074981                                             00000000000000000000000000000
513246680           415-2               0202305120000031000120230515000003100012023060400000310001000000000000000000013246680           FAC FEBRERO ULTRAFIBRA                  FAC FEB        B 0002-00073243                                             00000000000000000000000000000
510530342           416-1               0202305160000058000020230526000006000002023061500000600000000000000000000000010530342           FAC MAYO ULTRAFIBRA                     FAC MAY        B 0002-00077755                                             00000000000000000000000000000
520320490           417-1               0202305160000058000020230526000006000002023061500000600000000000000000000000020320490           FAC MAYO ULTRAFIBRA                     FAC MAY        B 0002-00077756                                             00000000000000000000000000000
511311926           418-1               0202305160000058000020230526000006000002023061500000600000000000000000000000011311926           FAC MAYO ULTRAFIBRA                     FAC MAY        B 0002-00077757                                             00000000000000000000000000000
523650701           419-1               0202305160000058000020230526000006000002023061500000600000000000000000000000023650701           FAC MAYO ULTRAFIBRA                     FAC MAY        B 0002-00078732                                             00000000000000000000000000000
521650512           420-1               0202305160000049300020230526000005130002023061500000513000000000000000000000021650512           FAC MAYO ULTRAFIBRA                     FAC MAY        B 0002-00077758                                             00000000000000000000000000000
514746606           421-1               0202305160000058000020230526000006000002023061500000600000000000000000000000014746606           FAC MAYO ULTRAFIBRA                     FAC MAY        B 0002-00077759                                             00000000000000000000000000000
523161016           422-1               0202305160000032000020230526000003400002023061500000340000000000000000000000023161016           FAC MAYO ULTRAFIBRA                     FAC MAY        B 0002-00078287                                             00000000000000000000000000000
53987983            423-1               020230516000003200002023052600000340000202306150000034000000000000000000000003987983            FAC MAYO ULTRAFIBRA                     FAC MAY        B 0002-00077760                                             00000000000000000000000000000
527830786           424-1               0202305160000068000120230526000007000012023061500000700001000000000000000000027830786           FAC MAYO ULTRAFIBRA                     FAC MAY        B 0002-00077761                                             00000000000000000000000000000
537774236           426-1               0202305160000058000020230526000006000002023061500000600000000000000000000000037774236           FAC MAYO ULTRAFIBRA                     FAC MAY        B 0002-00077762                                             00000000000000000000000000000
512732606           429-1               0202305160000069300020230526000007130002023061500000713000000000000000000000012732606           FAC MAYO ULTRAFIBRA                     FAC MAY        B 0002-00077763                                             00000000000000000000000000000
522929602           430-1               0202305160000052200020230526000005420002023061500000542000000000000000000000022929602           FAC MAYO ULTRAFIBRA                     FAC MAY        B 0002-00078389                                             00000000000000000000000000000
522929602           430-2               0202305120000049700020230515000004970002023060400000497000000000000000000000022929602           FAC ABRIL ULTRAFIBRA                    FAC ABR        B 0002-00076865                                             00000000000000000000000000000
512617727           432-1               0202305160000032000020230526000003400002023061500000340000000000000000000000012617727           FAC MAYO ULTRAFIBRA                     FAC MAY        B 0002-00078237                                             00000000000000000000000000000
539566458           433-1               0202305160000044200020230526000004620002023061500000462000000000000000000000039566458           FAC MAYO ULTRAFIBRA                     FAC MAY        B 0002-00077765                                             00000000000000000000000000000
531923079           437-1               0202305160000058000020230526000006000002023061500000600000000000000000000000031923079           FAC MAYO ULTRAFIBRA                     FAC MAY        B 0002-00078315                                             00000000000000000000000000000
520320424           438-1               0202305160000052200020230526000005420002023061500000542000000000000000000000020320424           FAC MAYO ULTRAFIBRA                     FAC MAY        B 0002-00077768                                             00000000000000000000000000000
54961365            440-1               020230516000003200002023052600000340000202306150000034000000000000000000000004961365            FAC MAYO ULTRAFIBRA                     FAC MAY        B 0002-00077770                                             00000000000000000000000000000
56167446            441-1               020230516000005800002023052600000600000202306150000060000000000000000000000006167446            FAC MAYO ULTRAFIBRA                     FAC MAY        B 0002-00077771                                             00000000000000000000000000000
54423371            442-1               020230516000003200002023052600000340000202306150000034000000000000000000000004423371            FAC MAYO ULTRAFIBRA                     FAC MAY        B 0002-00077772                                             00000000000000000000000000000
54968695            443-1               020230516000003200002023052600000340000202306150000034000000000000000000000004968695            FAC MAYO ULTRAFIBRA                     FAC MAY        B 0002-00077773                                             00000000000000000000000000000
510530325           446-1               0202305160000032000020230526000003400002023061500000340000000000000000000000010530325           FAC MAYO ULTRAFIBRA                     FAC MAY        B 0002-00077774                                             00000000000000000000000000000
518643616           450-1               0202305160000058000020230526000006000002023061500000600000000000000000000000018643616           FAC MAYO ULTRAFIBRA                     FAC MAY        B 0002-00077777                                             00000000000000000000000000000
56070143            452-1               020230516000003200002023052600000340000202306150000034000000000000000000000006070143            FAC MAYO ULTRAFIBRA                     FAC MAY        B 0002-00077778                                             00000000000000000000000000000
535831384           453-1               0202305160000032000020230526000003400002023061500000340000000000000000000000035831384           FAC MAYO ULTRAFIBRA                     FAC MAY        B 0002-00078456                                             00000000000000000000000000000
535831384           453-2               0202305120000031000120230515000003100012023060400000310001000000000000000000035831384           FAC ABRIL ULTRAFIBRA                    FAC ABR        B 0002-00076933                                             00000000000000000000000000000
529237582           455-1               0202305160000056000020230526000005800002023061500000580000000000000000000000029237582           FAC MAYO ULTRAFIBRA                     FAC MAY        B 0005-00015008                                             00000000000000000000000000000
529237582           455-2               0202305120000034000020230515000003400002023060400000340000000000000000000000029237582           FAC PROPORCIONAL ABRIL                  FAC ABR        B 0005-00014981                                             00000000000000000000000000000
529237582           455-3               0202305120000034000020230515000003400002023060400000340000000000000000000000029237582           FAC PROPORCIONAL MARZO                  FAC MAR        B 0005-00014451                                             00000000000000000000000000000
5274209423          456-1               02023051600000288000202305260000030800020230615000003080000000000000000000000274209423          FAC MAYO ULTRAFIBRA                     FAC MAY        B 0002-00077780                                             00000000000000000000000000000
511573229           457-1               0202305160000032000020230526000003400002023061500000340000000000000000000000011573229           FAC MAYO ULTRAFIBRA                     FAC MAY        B 0002-00077781                                             00000000000000000000000000000
514500480           461-1               0202305160000049300020230526000005130002023061500000513000000000000000000000014500480           FAC MAYO ULTRAFIBRA                     FAC MAY        B 0002-00078379                                             00000000000000000000000000000
52393145            462-1               020230516000003200002023052600000340000202306150000034000000000000000000000002393145            FAC MAYO ULTRAFIBRA                     FAC MAY        B 0002-00077783                                             00000000000000000000000000000
523264727           466-1               0202305160000027200020230526000002920002023061500000292000000000000000000000023264727           FAC MAYO ULTRAFIBRA                     FAC MAY        B 0002-00078811                                             00000000000000000000000000000
523264727           466-2               0202305160000049300020230526000005130002023061500000513000000000000000000000023264727           FAC MAYO ULTRAFIBRA                     FAC MAY        B 0002-00077786                                             00000000000000000000000000000
511965499           468-1               0202305160000032000020230526000003400002023061500000340000000000000000000000011965499           FAC MAYO ULTRAFIBRA                     FAC MAY        B 0002-00078617                                             00000000000000000000000000000
511965499           468-2               0202305160000058000020230526000006000002023061500000600000000000000000000000011965499           FAC MAYO ULTRAFIBRA                     FAC MAY        B 0002-00078596                                             00000000000000000000000000000
510242342           473-1               0202305160000032000020230526000003400002023061500000340000000000000000000000010242342           FAC MAYO ULTRAFIBRA                     FAC MAY        B 0002-00077788                                             00000000000000000000000000000
512370829           474-1               0202305160000052200020230526000005420002023061500000542000000000000000000000012370829           FAC MAYO ULTRAFIBRA                     FAC MAY        B 0002-00077789                                             00000000000000000000000000000
528834733           477-1               0202305160000058000020230526000006000002023061500000600000000000000000000000028834733           FAC MAYO ULTRAFIBRA                     FAC MAY        B 0002-00077791                                             00000000000000000000000000000
537396446           479-1               0202305120000026400020230515000002640002023060400000264000000000000000000000037396446           FAC JULIO ULTRAFIBRA                    FAC JUL        B 0002-00060373                                             00000000000000000000000000000
537396446           479-2               0202305120000022900120230515000002290012023060400000229001000000000000000000037396446           FAC JUNIO ULTRAFIBRA                    FAC JUN        B 0002-00059087                                             00000000000000000000000000000
537396446           479-3               0202305120000022900120230515000002290012023060400000229001000000000000000000037396446           FAC MAYO ULTRAFIBRA                     FAC MAY        B 0002-00057455                                             00000000000000000000000000000
537396446           479-4               0202305120000022900120230515000002290012023060400000229001000000000000000000037396446           FAC PROPORCIONAL ABRIL                  FAC ABR        B 0002-00055636                                             00000000000000000000000000000
528526903           483-1               0202305160000043000020230526000004500002023061500000450000000000000000000000028526903           FAC MAYO ULTRAFIBRA                     FAC MAY        B 0002-00078251                                             00000000000000000000000000000
514214868           486-1               0202305160000032000020230526000003400002023061500000340000000000000000000000014214868           FAC MAYO ULTRAFIBRA                     FAC MAY        B 0002-00077795                                             00000000000000000000000000000
53619721            487-1               020230516000003200002023052600000340000202306150000034000000000000000000000003619721            FAC MAYO ULTRAFIBRA                     FAC MAY        B 0002-00077796                                             00000000000000000000000000000
54850041            488-1               020230516000003200002023052600000340000202306150000034000000000000000000000004850041            FAC MAYO ULTRAFIBRA                     FAC MAY        B 0002-00077797                                             00000000000000000000000000000
57891700            489-1               020230516000005800002023052600000600000202306150000060000000000000000000000007891700            FAC MAYO ULTRAFIBRA                     FAC MAY        B 0002-00077798                                             00000000000000000000000000000
57891700            489-2               020230512000005500002023051500000550000202306040000055000000000000000000000007891700            FAC ABRIL ULTRAFIBRA                    FAC ABR        B 0002-00076018                                             00000000000000000000000000000
530485953           490-1               0202305160000032000020230526000003400002023061500000340000000000000000000000030485953           FAC MAYO ULTRAFIBRA                     FAC MAY        B 0002-00077799                                             00000000000000000000000000000
54434254            491-1               020230516000003200002023052600000340000202306150000034000000000000000000000004434254            FAC MAYO ULTRAFIBRA                     FAC MAY        B 0002-00077800                                             00000000000000000000000000000
55468628            493-1               020230516000003200002023052600000340000202306150000034000000000000000000000005468628            FAC MAYO ULTRAFIBRA                     FAC MAY        B 0002-00077801                                             00000000000000000000000000000
520261745           494-1               0202305160000058000020230526000006000002023061500000600000000000000000000000020261745           FAC MAYO ULTRAFIBRA                     FAC MAY        B 0002-00078390                                             00000000000000000000000000000
530498860           496-1               0202305160000058000020230526000006000002023061500000600000000000000000000000030498860           FAC MAYO ULTRAFIBRA                     FAC MAY        B 0002-00077802                                             00000000000000000000000000000
514513808           497-1               0202305160000032000020230526000003400002023061500000340000000000000000000000014513808           FAC MAYO ULTRAFIBRA                     FAC MAY        B 0002-00077803                                             00000000000000000000000000000
521103407           498-1               0202305160000052200020230526000005420002023061500000542000000000000000000000021103407           FAC MAYO ULTRAFIBRA                     FAC MAY        B 0002-00077804                                             00000000000000000000000000000
53689811            499-1               020230516000003200002023052600000340000202306150000034000000000000000000000003689811            FAC MAYO ULTRAFIBRA                     FAC MAY        B 0002-00077805                                             00000000000000000000000000000
533278250           500-1               0202305160000058000020230526000006000002023061500000600000000000000000000000033278250           FAC MAYO ULTRAFIBRA                     FAC MAY        B 0002-00077806                                             00000000000000000000000000000
530904578           504-1               0202305160000058000020230526000006000002023061500000600000000000000000000000030904578           FAC MAYO ULTRAFIBRA                     FAC MAY        B 0002-00078358                                             00000000000000000000000000000
530904578           504-2               0202305160000058000020230526000006000002023061500000600000000000000000000000030904578           FAC MAYO ULTRAFIBRA                     FAC MAY        B 0002-00078216                                             00000000000000000000000000000
56169835            507-1               020230516000005800002023052600000600000202306150000060000000000000000000000006169835            FAC MAYO ULTRAFIBRA                     FAC MAY        B 0002-00077809                                             00000000000000000000000000000
531960124           508-1               0202305160000032000020230526000003400002023061500000340000000000000000000000031960124           FAC MAYO ULTRAFIBRA                     FAC MAY        B 0002-00077810                                             00000000000000000000000000000
514214895           509-1               0202305160000058000020230526000006000002023061500000600000000000000000000000014214895           FAC MAYO ULTRAFIBRA                     FAC MAY        B 0002-00077811                                             00000000000000000000000000000
56239801            511-1               020230516000002880002023052600000308000202306150000030800000000000000000000006239801            FAC MAYO ULTRAFIBRA                     FAC MAY        B 0002-00077812                                             00000000000000000000000000000
540035789           513-1               0202305200000055000120230530000005500012023061900000550001000000000000000000040035789           FAC PROPORCIONAL MAYO                   FAC MAY        B 0002-00078897                                             00000000000000000000000000000
540035789           513-2               0202305160000058000020230526000006000002023061500000600000000000000000000000040035789           FAC MAYO ULTRAFIBRA                     FAC MAY        B 0002-00078519                                             00000000000000000000000000000
56486402            515-1               020230516000003200002023052600000340000202306150000034000000000000000000000006486402            FAC MAYO ULTRAFIBRA                     FAC MAY        B 0002-00077813                                             00000000000000000000000000000
56174253            517-1               020230516000003200002023052600000340000202306150000034000000000000000000000006174253            FAC MAYO ULTRAFIBRA                     FAC MAY        B 0002-00077814                                             00000000000000000000000000000
534023671           520-1               0202305160000058000020230526000006000002023061500000600000000000000000000000034023671           FAC MAYO ULTRAFIBRA                     FAC MAY        B 0002-00078532                                             00000000000000000000000000000
534023671           520-2               0202305160000058000020230526000006000002023061500000600000000000000000000000034023671           FAC MAYO ULTRAFIBRA                     FAC MAY        B 0002-00077815                                             00000000000000000000000000000
527862946           521-1               0202305160000058000020230526000006000002023061500000600000000000000000000000027862946           FAC MAYO ULTRAFIBRA                     FAC MAY        B 0002-00077816                                             00000000000000000000000000000
53989450            522-1               020230516000002880002023052600000308000202306150000030800000000000000000000003989450            FAC MAYO ULTRAFIBRA                     FAC MAY        B 0002-00077817                                             00000000000000000000000000000
531960151           523-1               0202305160000058000020230526000006000002023061500000600000000000000000000000031960151           FAC MAYO ULTRAFIBRA                     FAC MAY        B 0002-00078457                                             00000000000000000000000000000
57635026            524-1               020230516000005800002023052600000600000202306150000060000000000000000000000007635026            FAC MAYO ULTRAFIBRA                     FAC MAY        B 0002-00077818                                             00000000000000000000000000000
56098832            525-1               020230516000003200002023052600000340000202306150000034000000000000000000000006098832            FAC MAYO ULTRAFIBRA                     FAC MAY        B 0002-00077819                                             00000000000000000000000000000
56098832            525-2               020230512000003100012023051500000310001202306040000031000100000000000000000006098832            FAC ABRIL ULTRAFIBRA                    FAC ABR        B 0002-00076039                                             00000000000000000000000000000
54850088            526-1               020230516000003200002023052600000340000202306150000034000000000000000000000004850088            FAC MAYO ULTRAFIBRA                     FAC MAY        B 0002-00077820                                             00000000000000000000000000000
525210281           527-1               0202305160000052200020230526000005420002023061500000542000000000000000000000025210281           FAC MAYO ULTRAFIBRA                     FAC MAY        B 0002-00077821                                             00000000000000000000000000000
510530317           528-1               0202305160000032000020230526000003400002023061500000340000000000000000000000010530317           FAC MAYO ULTRAFIBRA                     FAC MAY        B 0002-00077822                                             00000000000000000000000000000
55075801            532-1               020230516000005800002023052600000600000202306150000060000000000000000000000005075801            FAC MAYO ULTRAFIBRA                     FAC MAY        B 0002-00077823                                             00000000000000000000000000000
532076179           533-1               0202305160000028800020230526000003080002023061500000308000000000000000000000032076179           FAC MAYO ULTRAFIBRA                     FAC MAY        B 0002-00078621                                             00000000000000000000000000000
532076179           533-2               0202305160000069300020230526000007130002023061500000713000000000000000000000032076179           FAC MAYO ULTRAFIBRA                     FAC MAY        B 0002-00078244                                             00000000000000000000000000000
532076179           533-3               0202305120000028100120230515000002810012023060400000281001000000000000000000032076179           FAC ABRIL ULTRAFIBRA                    FAC ABR        B 0002-00076625                                             00000000000000000000000000000
532076179           533-4               0202305120000065000020230515000006500002023060400000650000000000000000000000032076179           FAC ABRIL ULTRAFIBRA                    FAC ABR        B 0002-00076464                                             00000000000000000000000000000
516261478           534-1               0202305160000032000020230526000003400002023061500000340000000000000000000000016261478           FAC MAYO ULTRAFIBRA                     FAC MAY        B 0002-00078527                                             00000000000000000000000000000
58478092            538-1               020230516000005800002023052600000600000202306150000060000000000000000000000008478092            FAC MAYO ULTRAFIBRA                     FAC MAY        B 0002-00077825                                             00000000000000000000000000000
530498813           539-1               0202305160000032000020230526000003400002023061500000340000000000000000000000030498813           FAC MAYO ULTRAFIBRA                     FAC MAY        B 0002-00077826                                             00000000000000000000000000000
56617750            540-1               020230516000003200002023052600000340000202306150000034000000000000000000000006617750            FAC MAYO ULTRAFIBRA                     FAC MAY        B 0002-00077827                                             00000000000000000000000000000
56434676            542-1               020230516000003200002023052600000340000202306150000034000000000000000000000006434676            FAC MAYO ULTRAFIBRA                     FAC MAY        B 0002-00077828                                             00000000000000000000000000000
523351294           543-1               0202305160000058000020230526000006000002023061500000600000000000000000000000023351294           FAC MAYO ULTRAFIBRA                     FAC MAY        B 0002-00077829                                             00000000000000000000000000000
514500495           544-1               0202305160000032000020230526000003400002023061500000340000000000000000000000014500495           FAC MAYO ULTRAFIBRA                     FAC MAY        B 0002-00077830                                             00000000000000000000000000000
527862966           545-1               0202305160000058000020230526000006000002023061500000600000000000000000000000027862966           FAC MAYO ULTRAFIBRA                     FAC MAY        B 0002-00078391                                             00000000000000000000000000000
523871589           546-1               0202305160000032000020230526000003400002023061500000340000000000000000000000023871589           FAC MAYO ULTRAFIBRA                     FAC MAY        B 0002-00077831                                             00000000000000000000000000000
532068619           547-1               0202305160000058000020230526000006000002023061500000600000000000000000000000032068619           FAC MAYO ULTRAFIBRA                     FAC MAY        B 0002-00077832                                             00000000000000000000000000000
526423885           549-1               0202305160000058000020230526000006000002023061500000600000000000000000000000026423885           FAC MAYO ULTRAFIBRA                     FAC MAY        B 0002-00078274                                             00000000000000000000000000000
526626417           554-1               0202305120000026400020230515000002640002023060400000264000000000000000000000026626417           FAC JULIO ULTRAFIBRA                    FAC JUL        B 0002-00060416                                             00000000000000000000000000000
526626417           554-2               0202305120000022900120230515000002290012023060400000229001000000000000000000026626417           FAC JUNIO ULTRAFIBRA                    FAC JUN        B 0002-00059130                                             00000000000000000000000000000
526626417           554-3               0202305120000022900120230515000002290012023060400000229001000000000000000000026626417           FAC MAYO ULTRAFIBRA                     FAC MAY        B 0002-00057497                                             00000000000000000000000000000
526626417           554-4               0202305120000022900120230515000002290012023060400000229001000000000000000000026626417           FAC PROPORCIONAL ABRIL                  FAC ABR        B 0002-00055648                                             00000000000000000000000000000
54416868            555-1               020230516000004930002023052600000513000202306150000051300000000000000000000004416868            FAC MAYO ULTRAFIBRA                     FAC MAY        B 0002-00078405                                             00000000000000000000000000000
514746631           556-1               0202305160000032000020230526000003400002023061500000340000000000000000000000014746631           FAC MAYO ULTRAFIBRA                     FAC MAY        B 0002-00077834                                             00000000000000000000000000000
534761937           558-1               0202305160000032000020230526000003400002023061500000340000000000000000000000034761937           FAC MAYO ULTRAFIBRA                     FAC MAY        B 0002-00077835                                             00000000000000000000000000000
516488319           559-1               0202305160000068000120230526000007000012023061500000700001000000000000000000016488319           FAC MAYO ULTRAFIBRA                     FAC MAY        B 0002-00078504                                             00000000000000000000000000000
529955506           564-1               0202305160000058000020230526000006000002023061500000600000000000000000000000029955506           FAC MAYO ULTRAFIBRA                     FAC MAY        B 0002-00078305                                             00000000000000000000000000000
527292518           565-1               0202305120000036400020230515000003640002023060400000364000000000000000000000027292518           FAC JULIO ULTRAFIBRA                    FAC JUL        B 0002-00061075                                             00000000000000000000000000000
527292518           565-2               0202305120000031900020230515000003190002023060400000319000000000000000000000027292518           FAC JUNIO ULTRAFIBRA                    FAC JUN        B 0002-00059788                                             00000000000000000000000000000
527292518           565-3               0202305120000031900020230515000003190002023060400000319000000000000000000000027292518           FAC MAYO ULTRAFIBRA                     FAC MAY        B 0002-00058154                                             00000000000000000000000000000
527292518           565-4               0202305120000031900020230515000003190002023060400000319000000000000000000000027292518           FAC PROPORCIONAL ABRIL                  FAC ABR        B 0002-00056221                                             00000000000000000000000000000
521103402           566-1               0202305160000032000020230526000003400002023061500000340000000000000000000000021103402           FAC MAYO ULTRAFIBRA                     FAC MAY        B 0002-00077836                                             00000000000000000000000000000
512912476           568-1               0202305160000032000020230526000003400002023061500000340000000000000000000000012912476           FAC MAYO ULTRAFIBRA                     FAC MAY        B 0002-00077837                                             00000000000000000000000000000
522444588           570-1               0202305160000028800020230526000003080002023061500000308000000000000000000000022444588           FAC MAYO ULTRAFIBRA                     FAC MAY        B 0002-00077838                                             00000000000000000000000000000
520320403           571-1               0202305160000058000020230526000006000002023061500000600000000000000000000000020320403           FAC MAYO ULTRAFIBRA                     FAC MAY        B 0002-00077839                                             00000000000000000000000000000
527292556           572-1               0202305160000052200020230526000005420002023061500000542000000000000000000000027292556           FAC MAYO ULTRAFIBRA                     FAC MAY        B 0002-00078416                                             00000000000000000000000000000
530994491           574-1               0202305160000056000020230526000005800002023061500000580000000000000000000000030994491           FAC MAYO ULTRAFIBRA                     FAC MAY        B 0005-00015254                                             00000000000000000000000000000
530994491           574-2               0202305120000053000020230515000005300002023060400000530000000000000000000000030994491           FAC ABRIL ULTRAFIBRA                    FAC ABR        B 0005-00014698                                             00000000000000000000000000000
54973902            575-1               020230516000005800002023052600000600000202306150000060000000000000000000000004973902            FAC MAYO ULTRAFIBRA                     FAC MAY        B 0002-00077841                                             00000000000000000000000000000
526423875           577-1               0202305160000068000120230526000007000012023061500000700001000000000000000000026423875           FAC MAYO ULTRAFIBRA                     FAC MAY        B 0002-00077842                                             00000000000000000000000000000
513246686           580-1               0202305160000058000020230526000006000002023061500000600000000000000000000000013246686           FAC MAYO ULTRAFIBRA                     FAC MAY        B 0002-00078423                                             00000000000000000000000000000
511965477           581-1               0202305160000032000020230526000003400002023061500000340000000000000000000000011965477           FAC MAYO ULTRAFIBRA                     FAC MAY        B 0002-00077843                                             00000000000000000000000000000
534831654           583-1               0202305160000058000020230526000006000002023061500000600000000000000000000000034831654           FAC MAYO ULTRAFIBRA                     FAC MAY        B 0002-00078268                                             00000000000000000000000000000
533319615           584-1               0202305160000052000020230526000005400002023061500000540000000000000000000000033319615           FAC MAYO ULTRAFIBRA                     FAC MAY        B 0002-00078590                                             00000000000000000000000000000
514500487           585-1               0202305160000032000020230526000003400002023061500000340000000000000000000000014500487           FAC MAYO ULTRAFIBRA                     FAC MAY        B 0002-00078220                                             00000000000000000000000000000
514500487           585-2               0202305160000032000020230526000003400002023061500000340000000000000000000000014500487           FAC MAYO ULTRAFIBRA                     FAC MAY        B 0002-00078219                                             00000000000000000000000000000
514500487           585-3               0202305120000031000120230515000003100012023060400000310001000000000000000000014500487           FAC ABRIL ULTRAFIBRA                    FAC ABR        B 0002-00076440                                             00000000000000000000000000000
514500487           585-4               0202305120000031000120230515000003100012023060400000310001000000000000000000014500487           FAC ABRIL ULTRAFIBRA                    FAC ABR        B 0002-00076439                                             00000000000000000000000000000
56236016            591-1               020230516000005220002023052600000542000202306150000054200000000000000000000006236016            FAC MAYO ULTRAFIBRA                     FAC MAY        B 0002-00077849                                             00000000000000000000000000000
520523389           593-1               0202305160000058000020230526000006000002023061500000600000000000000000000000020523389           FAC MAYO ULTRAFIBRA                     FAC MAY        B 0002-00077850                                             00000000000000000000000000000
55934291            594-1               020230516000005800002023052600000600000202306150000060000000000000000000000005934291            FAC MAYO ULTRAFIBRA                     FAC MAY        B 0002-00077851                                             00000000000000000000000000000
